:020000040000FA
:040000003DEF7CF064
:10F85800800F810F820F830F840F890F8A0F8B0F00
:10F868008C0F8D0F920F930F940F950F960F1322F5
:10F878001202580EF66EF80EF76E000EF86E00EED5
:10F8880001F010EE22F00900F5CFEEFFE550E1504F
:10F89800FAE1356A000EF86E0001A8EF7EF02B6ED3
:10F8A800080E23605AEF7CF05CEF7CF08AEF7CF066
:10F8B80024502510D8A463EF7CF065EF7CF067EF47
:10F8C8007CF08AEF7CF023C026F02B50020D010E4D
:10F8D800F324D96E000EF420DA6EDECF27F0DDCFE8
:10F8E80028F027C0D9FF28C0DAFFDF50296E262A62
:10F8F80080EF7CF0D8902932262E7EEF7CF02950BC
:10F90800010B24C0D9FF25C0DAFFDF6E12002C508E
:10F918002D10D8B492EF7CF094EF7CF0C5EF7CF01A
:10F928002CC0D9FF2DC0DAFFDF500F0B2E6E050E4D
:10F938002E60A1EF7CF0A3EF7CF0C5EF7CF02CC02B
:10F94800D9FF2DC0DAFFDF38070B2E6E070E2E64A5
:10F95800B0EF7CF0B2EF7CF0B4EF7CF0C5EF7CF058
:10F968002CC0D9FF2DC0DAFFDF38070B236E010E3C
:10F97800246E2CC0D9FF2DC0DAFFDF500F0BE0EC4E
:10F988007DF012002C502D10D8B4CDEF7CF0CFEFC5
:10F998007CF005EF7DF02CC0D9FF2DC0DAFFDF50D9
:10F9A8000F0B2E6E050E2E60DCEF7CF0DEEF7CF088
:10F9B80005EF7DF02CC0D9FF2DC0DAFFDF38070B2B
:10F9C8002E6E070E2E64EBEF7CF0EDEF7CF0EFEF80
:10F9D8007CF005EF7DF02CC0D9FF2DC0DAFFDF38B1
:10F9E800070B236E000E246E2CC0D9FF2DC0DAFF42
:10F9F800DF500F0B44EC7EF02CC0D9FF2DC0DAFF8E
:10FA0800DF9E12002C502D10D8B40DEF7DF00FEFB3
:10FA18007DF045EF7DF02CC0D9FF2DC0DAFFDF5017
:10FA28000F0B2E6E050E2E601CEF7DF01EEF7DF085
:10FA380045EF7DF02CC0D9FF2DC0DAFFDF38070B6A
:10FA48002E6E070E2E642BEF7DF02DEF7DF02FEF3D
:10FA58007DF045EF7DF02CC0D9FF2DC0DAFFDF38EF
:10FA6800070B236E010E246E2CC0D9FF2DC0DAFFC0
:10FA7800DF500F0B44EC7EF02CC0D9FF2DC0DAFF0D
:10FA8800DF8E12002C502D10D8B44DEF7DF04FEFC3
:10FA98007DF091EF7DF02CC0D9FF2DC0DAFFDF504B
:10FAA8000F0B2E6E050E2E605CEF7DF05EEF7DF085
:10FAB80091EF7DF02CC0D9FF2DC0DAFFDF38070B9E
:10FAC8002E6E070E2E646BEF7DF06DEF7DF06FEFFD
:10FAD8007DF091EF7DF02CC0D9FF2DC0DAFFDF3823
:10FAE800070B236E000E246E2CC0D9FF2DC0DAFF41
:10FAF800DF500F0BE0EC7DF02CC0D9FF2DC0DAFFF2
:10FB0800DF38070B236E000E246E2CC0D9FF2DC0E2
:10FB1800DAFFDF500F0B44EC7EF012002C502D1052
:10FB2800D8B499EF7DF09BEF7DF0DFEF7DF02CC02E
:10FB3800D9FF2DC0DAFFDF500F0B306E050E306095
:10FB4800A8EF7DF0AAEF7DF0DFEF7DF02CC0D9FFA4
:10FB58002DC0DAFFDF38070B306E070E3064B7EFC1
:10FB68007DF0B9EF7DF0BBEF7DF0DFEF7DF02CC0CD
:10FB7800D9FF2DC0DAFFDF38070B236E2EC024F023
:10FB88002FC025F02CC0D9FF2DC0DAFFDF500F0B96
:10FB980053EC7CF02EC0D9FF2FC0DAFFDF50306E57
:10FBA8002CC0D9FF2DC0DAFF30323032DF50301888
:10FBB8007F0B3018DF6E12002B6E080E2360E7EF04
:10FBC8007DF0E9EF7DF043EF7EF02EEF7EF023C06D
:10FBD80025F0010E266E252AF4EF7DF0D890263602
:10FBE800252EF2EF7DF02650FF0A276E2B50020DCE
:10FBF800150EF324D96E000EF420DA6EDECF28F04D
:10FC0800DDCF29F028C0D9FF29C0DAFF2750DF1639
:10FC180043EF7EF023C025F0010E266E252A17EF4C
:10FC28007EF0D8902636252E15EF7EF02B50020D4B
:10FC3800150EF324D96E000EF420DA6EDECF27F00D
:10FC4800DDCF28F027C0D9FF28C0DAFF2650DF1201
:10FC580043EF7EF02450256E266A2650000AD8B459
:10FC680038EF7EF043EF7EF02550000AD8B4EBEF72
:10FC78007DF0010AD8B40EEF7EF043EF7EF012005B
:10FC88002B6E080E23604BEF7EF04DEF7EF0A7EF52
:10FC98007EF092EF7EF023C025F0010E266E252A15
:10FCA80058EF7EF0D8902636252E56EF7EF0265057
:10FCB800FF0A276E2B50020D0B0EF324D96E000E8F
:10FCC800F420DA6EDECF28F0DDCF29F028C0D9FF86
:10FCD80029C0DAFF2750DF16A7EF7EF023C025F0F2
:10FCE800010E266E252A7BEF7EF0D8902636252E2B
:10FCF80079EF7EF02B50020D0B0EF324D96E000E17
:10FD0800F420DA6EDECF27F0DDCF28F027C0D9FF48
:10FD180028C0DAFF2650DF12A7EF7EF02450256EA8
:10FD2800266A2650000AD8B49CEF7EF0A7EF7EF032
:10FD38002550000AD8B44FEF7EF0010AD8B472EF0C
:10FD48007EF0A7EF7EF01200000E346E220E2C6EAD
:10FD5800000E2D6E46EC7DF0210E2C6E000E2D6EE1
:10FD680046EC7DF0200E2C6E000E2D6E46EC7DF0DC
:10FD78001F0E2C6E000E2D6E8BEC7CF01F0E2C6E61
:10FD8800000E2D6E350E2E6E000E2F6E92EC7DF04D
:10FD98003504D8A4D2EF7EF0D4EF7EF0C2EF7EF027
:10FDA8003450D8A4DAEF7EF0DCEF7EF0F8EF7EF086
:10FDB800220E2C6E000E2D6E06EC7DF0040E336EB6
:10FDC8008E0E326E120EE82EFED7322EFCD7332E50
:10FDD800FAD700F000F0220E2C6E000E2D6EC6EC45
:10FDE8007CF0342AC2EF7EF03404D8A4FEEF7EF013
:10FDF80000EF7FF041EF7FF0210E2C6E000E2D6E8C
:10FE080006EC7DF0040E336E8E0E326E120EE82E66
:10FE1800FED7322EFCD7332EFAD700F000F0210E91
:10FE28002C6E000E2D6EC6EC7CF0040E336E8E0E1A
:10FE3800326E120EE82EFED7322EFCD7332EFAD7AA
:10FE480000F000F0210E2C6E000E2D6E06EC7DF0F9
:10FE5800040E336E8E0E326E120EE82EFED7322E40
:10FE6800FCD7332EFAD700F000F0210E2C6E000ECE
:10FE78002D6EC6EC7CF0F5EF7EF0020E3418D8A497
:10FE880048EF7FF04AEF7FF0B1EF7FF0200E2C6E45
:10FE9800000E2D6E06EC7DF0040E336E8E0E326E63
:10FEA800120EE82EFED7322EFCD7332EFAD700F0EA
:10FEB80000F0200E2C6E000E2D6EC6EC7CF0040EA9
:10FEC800336E8E0E326E120EE82EFED7322EFCD70F
:10FED800332EFAD700F000F0200E2C6E000E2D6E97
:10FEE80006EC7DF0040E336E8E0E326E120EE82E86
:10FEF800FED7322EFCD7332EFAD700F000F0200EB2
:10FF08002C6E000E2D6EC6EC7CF0040E336E8E0E39
:10FF1800326E120EE82EFED7322EFCD7332EFAD7C9
:10FF280000F000F0200E2C6E000E2D6E06EC7DF019
:10FF3800040E336E8E0E326E120EE82EFED7322E5F
:10FF4800FCD7332EFAD700F000F0200E2C6E000EEE
:10FF58002D6EC6EC7CF0F5EF7EF0030E3418D8A4B5
:10FF6800B8EF7FF0BAEF7FF0DBEF7FF0220E2C6E58
:10FF7800000E2D6E06EC7DF0210E2C6E000E2D6EFF
:10FF880006EC7DF0200E2C6E000E2D6E06EC7DF03A
:10FF9800040E336E8E0E326E120EE82EFED7322EFF
:10FFA800FCD7332EFAD700F000F0F5EF7EF0220EE2
:10FFB8002C6E000E2D6EC6EC7CF0210E2C6E000E01
:10FFC8002D6EC6EC7CF0200E2C6E000E2D6EC6EC4D
:10FFD8007CF0040E336E8E0E326E120EE82EFED7B3
:10FFE800322EFCD7332EFAD700F000F0000E346E14
:08FFF800C2EF7EF000EF00F003
:020000040020DA
:08000000FFFFFFFFFFFFFFFF00
:020000040030CA
:0E000000FF071F1FFF8B85FF0FC00FE00F4093
:00000001FF
